{
  "_format": "hh-sol-artifact-1",
  "contractName": "UniSwapV3",
  "sourceName": "contracts/UniSwapV3.sol",
  "abi": [
    {
      "inputs": [],
      "stateMutability": "nonpayable",
      "type": "constructor"
    },
    {
      "inputs": [
        {
          "internalType": "uint256",
          "name": "",
          "type": "uint256"
        }
      ],
      "name": "erc20",
      "outputs": [
        {
          "internalType": "address",
          "name": "",
          "type": "address"
        }
      ],
      "stateMutability": "view",
      "type": "function"
    },
    {
      "inputs": [],
      "name": "swapRouter",
      "outputs": [
        {
          "internalType": "contract ISwapRouter",
          "name": "",
          "type": "address"
        }
      ],
      "stateMutability": "view",
      "type": "function"
    },
    {
      "inputs": [
        {
          "internalType": "uint256",
          "name": "amountIn",
          "type": "uint256"
        },
        {
          "internalType": "uint256",
          "name": "input",
          "type": "uint256"
        },
        {
          "internalType": "uint256",
          "name": "output",
          "type": "uint256"
        }
      ],
      "name": "swapTokenInputSingle",
      "outputs": [
        {
          "internalType": "uint256",
          "name": "amountOut",
          "type": "uint256"
        }
      ],
      "stateMutability": "nonpayable",
      "type": "function"
    },
    {
      "inputs": [
        {
          "internalType": "uint256",
          "name": "input",
          "type": "uint256"
        },
        {
          "internalType": "uint256",
          "name": "output",
          "type": "uint256"
        },
        {
          "internalType": "uint256",
          "name": "amountOut",
          "type": "uint256"
        },
        {
          "internalType": "uint256",
          "name": "amountInMaximum",
          "type": "uint256"
        }
      ],
      "name": "swapTokenOutputSingle",
      "outputs": [
        {
          "internalType": "uint256",
          "name": "amountIn",
          "type": "uint256"
        }
      ],
      "stateMutability": "nonpayable",
      "type": "function"
    }
  ],
  "bytecode": "0x6080604052733bfa4769fb09eefc5a80d6e87c3b9c650f7ae48e6000806101000a81548173ffffffffffffffffffffffffffffffffffffffff021916908373ffffffffffffffffffffffffffffffffffffffff16021790555034801561006457600080fd5b50604051806040016040528073a6fa4fb5f76172d178d61b04b0ecd319c5d1c0aa73ffffffffffffffffffffffffffffffffffffffff1673ffffffffffffffffffffffffffffffffffffffff168152602001739c3c9283d3e44854697cd22d3faa240cfb03288973ffffffffffffffffffffffffffffffffffffffff1673ffffffffffffffffffffffffffffffffffffffff16815250600190600261010a929190610110565b506101b7565b828054828255906000526020600020908101928215610189579160200282015b828111156101885782518260006101000a81548173ffffffffffffffffffffffffffffffffffffffff021916908373ffffffffffffffffffffffffffffffffffffffff16021790555091602001919060010190610130565b5b509050610196919061019a565b5090565b5b808211156101b357600081600090555060010161019b565b5090565b6113f680620001c76000396000f3fe608060405234801561001057600080fd5b506004361061004c5760003560e01c80638ec0fb5814610051578063ae1d632a14610081578063c31c9c07146100b1578063cc5c83b1146100cf575b600080fd5b61006b60048036038101906100669190610c30565b6100ff565b6040516100789190610c9e565b60405180910390f35b61009b60048036038101906100969190610cb9565b61013e565b6040516100a89190610d1b565b60405180910390f35b6100b9610423565b6040516100c69190610d95565b60405180910390f35b6100e960048036038101906100e49190610db0565b610447565b6040516100f69190610d1b565b60405180910390f35b6001818154811061010f57600080fd5b906000526020600020016000915054906101000a900473ffffffffffffffffffffffffffffffffffffffff1681565b600080840361014c57600080fd5b81830361015857600080fd5b60018054905083108015610170575060018054905082105b6101af576040517f08c379a00000000000000000000000000000000000000000000000000000000081526004016101a690610e74565b60405180910390fd5b6101f9600184815481106101c6576101c5610e94565b5b9060005260206000200160009054906101000a900473ffffffffffffffffffffffffffffffffffffffff163330876107f3565b610262600184815481106102105761020f610e94565b5b9060005260206000200160009054906101000a900473ffffffffffffffffffffffffffffffffffffffff1660008054906101000a900473ffffffffffffffffffffffffffffffffffffffff168661094b565b60006040518061010001604052806001868154811061028457610283610e94565b5b9060005260206000200160009054906101000a900473ffffffffffffffffffffffffffffffffffffffff1673ffffffffffffffffffffffffffffffffffffffff168152602001600185815481106102de576102dd610e94565b5b9060005260206000200160009054906101000a900473ffffffffffffffffffffffffffffffffffffffff1673ffffffffffffffffffffffffffffffffffffffff168152602001610bb862ffffff1681526020013373ffffffffffffffffffffffffffffffffffffffff16815260200142815260200186815260200160008152602001600073ffffffffffffffffffffffffffffffffffffffff16815250905060008054906101000a900473ffffffffffffffffffffffffffffffffffffffff1673ffffffffffffffffffffffffffffffffffffffff1663414bf389826040518263ffffffff1660e01b81526004016103d69190610fb0565b6020604051808303816000875af11580156103f5573d6000803e3d6000fd5b505050506040513d601f19601f820116820180604052508101906104199190610fe1565b9150509392505050565b60008054906101000a900473ffffffffffffffffffffffffffffffffffffffff1681565b600080820361045557600080fd5b83850361046157600080fd5b60018054905085108015610479575060018054905084105b6104b8576040517f08c379a00000000000000000000000000000000000000000000000000000000081526004016104af90610e74565b60405180910390fd5b610502600186815481106104cf576104ce610e94565b5b9060005260206000200160009054906101000a900473ffffffffffffffffffffffffffffffffffffffff163330856107f3565b61056b6001868154811061051957610518610e94565b5b9060005260206000200160009054906101000a900473ffffffffffffffffffffffffffffffffffffffff1660008054906101000a900473ffffffffffffffffffffffffffffffffffffffff168461094b565b60006040518061010001604052806001888154811061058d5761058c610e94565b5b9060005260206000200160009054906101000a900473ffffffffffffffffffffffffffffffffffffffff1673ffffffffffffffffffffffffffffffffffffffff168152602001600187815481106105e7576105e6610e94565b5b9060005260206000200160009054906101000a900473ffffffffffffffffffffffffffffffffffffffff1673ffffffffffffffffffffffffffffffffffffffff168152602001610bb862ffffff1681526020013373ffffffffffffffffffffffffffffffffffffffff168152602001428152602001858152602001848152602001600073ffffffffffffffffffffffffffffffffffffffff16815250905060008054906101000a900473ffffffffffffffffffffffffffffffffffffffff1673ffffffffffffffffffffffffffffffffffffffff1663db3e2198826040518263ffffffff1660e01b81526004016106de91906110b0565b6020604051808303816000875af11580156106fd573d6000803e3d6000fd5b505050506040513d601f19601f820116820180604052508101906107219190610fe1565b9150828210156107ea576107956001878154811061074257610741610e94565b5b9060005260206000200160009054906101000a900473ffffffffffffffffffffffffffffffffffffffff1660008054906101000a900473ffffffffffffffffffffffffffffffffffffffff16600061094b565b6107e9600187815481106107ac576107ab610e94565b5b9060005260206000200160009054906101000a900473ffffffffffffffffffffffffffffffffffffffff163384866107e491906110fb565b610aa0565b5b50949350505050565b6000808573ffffffffffffffffffffffffffffffffffffffff166323b872dd60e01b86868660405160240161082a9392919061112f565b604051602081830303815290604052907bffffffffffffffffffffffffffffffffffffffffffffffffffffffff19166020820180517bffffffffffffffffffffffffffffffffffffffffffffffffffffffff838183161783525050505060405161089491906111d7565b6000604051808303816000865af19150503d80600081146108d1576040519150601f19603f3d011682016040523d82523d6000602084013e6108d6565b606091505b509150915081801561090457506000815114806109035750808060200190518101906109029190611226565b5b5b610943576040517f08c379a000000000000000000000000000000000000000000000000000000000815260040161093a9061129f565b60405180910390fd5b505050505050565b6000808473ffffffffffffffffffffffffffffffffffffffff1663095ea7b360e01b85856040516024016109809291906112bf565b604051602081830303815290604052907bffffffffffffffffffffffffffffffffffffffffffffffffffffffff19166020820180517bffffffffffffffffffffffffffffffffffffffffffffffffffffffff83818316178352505050506040516109ea91906111d7565b6000604051808303816000865af19150503d8060008114610a27576040519150601f19603f3d011682016040523d82523d6000602084013e610a2c565b606091505b5091509150818015610a5a5750600081511480610a59575080806020019051810190610a589190611226565b5b5b610a99576040517f08c379a0000000000000000000000000000000000000000000000000000000008152600401610a9090611334565b60405180910390fd5b5050505050565b6000808473ffffffffffffffffffffffffffffffffffffffff1663a9059cbb60e01b8585604051602401610ad59291906112bf565b604051602081830303815290604052907bffffffffffffffffffffffffffffffffffffffffffffffffffffffff19166020820180517bffffffffffffffffffffffffffffffffffffffffffffffffffffffff8381831617835250505050604051610b3f91906111d7565b6000604051808303816000865af19150503d8060008114610b7c576040519150601f19603f3d011682016040523d82523d6000602084013e610b81565b606091505b5091509150818015610baf5750600081511480610bae575080806020019051810190610bad9190611226565b5b5b610bee576040517f08c379a0000000000000000000000000000000000000000000000000000000008152600401610be5906113a0565b60405180910390fd5b5050505050565b600080fd5b6000819050919050565b610c0d81610bfa565b8114610c1857600080fd5b50565b600081359050610c2a81610c04565b92915050565b600060208284031215610c4657610c45610bf5565b5b6000610c5484828501610c1b565b91505092915050565b600073ffffffffffffffffffffffffffffffffffffffff82169050919050565b6000610c8882610c5d565b9050919050565b610c9881610c7d565b82525050565b6000602082019050610cb36000830184610c8f565b92915050565b600080600060608486031215610cd257610cd1610bf5565b5b6000610ce086828701610c1b565b9350506020610cf186828701610c1b565b9250506040610d0286828701610c1b565b9150509250925092565b610d1581610bfa565b82525050565b6000602082019050610d306000830184610d0c565b92915050565b6000819050919050565b6000610d5b610d56610d5184610c5d565b610d36565b610c5d565b9050919050565b6000610d6d82610d40565b9050919050565b6000610d7f82610d62565b9050919050565b610d8f81610d74565b82525050565b6000602082019050610daa6000830184610d86565b92915050565b60008060008060808587031215610dca57610dc9610bf5565b5b6000610dd887828801610c1b565b9450506020610de987828801610c1b565b9350506040610dfa87828801610c1b565b9250506060610e0b87828801610c1b565b91505092959194509250565b600082825260208201905092915050565b7f4f7574206f6620426f756e647300000000000000000000000000000000000000600082015250565b6000610e5e600d83610e17565b9150610e6982610e28565b602082019050919050565b60006020820190508181036000830152610e8d81610e51565b9050919050565b7f4e487b7100000000000000000000000000000000000000000000000000000000600052603260045260246000fd5b610ecc81610c7d565b82525050565b600062ffffff82169050919050565b610eea81610ed2565b82525050565b610ef981610bfa565b82525050565b610f0881610c5d565b82525050565b61010082016000820151610f256000850182610ec3565b506020820151610f386020850182610ec3565b506040820151610f4b6040850182610ee1565b506060820151610f5e6060850182610ec3565b506080820151610f716080850182610ef0565b5060a0820151610f8460a0850182610ef0565b5060c0820151610f9760c0850182610ef0565b5060e0820151610faa60e0850182610eff565b50505050565b600061010082019050610fc66000830184610f0e565b92915050565b600081519050610fdb81610c04565b92915050565b600060208284031215610ff757610ff6610bf5565b5b600061100584828501610fcc565b91505092915050565b610100820160008201516110256000850182610ec3565b5060208201516110386020850182610ec3565b50604082015161104b6040850182610ee1565b50606082015161105e6060850182610ec3565b5060808201516110716080850182610ef0565b5060a082015161108460a0850182610ef0565b5060c082015161109760c0850182610ef0565b5060e08201516110aa60e0850182610eff565b50505050565b6000610100820190506110c6600083018461100e565b92915050565b7f4e487b7100000000000000000000000000000000000000000000000000000000600052601160045260246000fd5b600061110682610bfa565b915061111183610bfa565b9250828203905081811115611129576111286110cc565b5b92915050565b60006060820190506111446000830186610c8f565b6111516020830185610c8f565b61115e6040830184610d0c565b949350505050565b600081519050919050565b600081905092915050565b60005b8381101561119a57808201518184015260208101905061117f565b60008484015250505050565b60006111b182611166565b6111bb8185611171565b93506111cb81856020860161117c565b80840191505092915050565b60006111e382846111a6565b915081905092915050565b60008115159050919050565b611203816111ee565b811461120e57600080fd5b50565b600081519050611220816111fa565b92915050565b60006020828403121561123c5761123b610bf5565b5b600061124a84828501611211565b91505092915050565b7f5354460000000000000000000000000000000000000000000000000000000000600082015250565b6000611289600383610e17565b915061129482611253565b602082019050919050565b600060208201905081810360008301526112b88161127c565b9050919050565b60006040820190506112d46000830185610c8f565b6112e16020830184610d0c565b9392505050565b7f5341000000000000000000000000000000000000000000000000000000000000600082015250565b600061131e600283610e17565b9150611329826112e8565b602082019050919050565b6000602082019050818103600083015261134d81611311565b9050919050565b7f5354000000000000000000000000000000000000000000000000000000000000600082015250565b600061138a600283610e17565b915061139582611354565b602082019050919050565b600060208201905081810360008301526113b98161137d565b905091905056fea264697066735822122050918c7a7e9985dcc5dcf658c5e182bf6312d5529f86ba4f48640322e37f1f7464736f6c63430008140033",
  "linkReferences": {},
  "deployedLinkReferences": {}
}