{
  "_format": "hh-sol-artifact-1",
  "contractName": "UniSwapV3",
  "sourceName": "contracts/UniSwapV3.sol",
  "abi": [
    {
      "inputs": [],
      "stateMutability": "nonpayable",
      "type": "constructor"
    },
    {
      "inputs": [
        {
          "internalType": "uint256",
          "name": "",
          "type": "uint256"
        }
      ],
      "name": "erc20",
      "outputs": [
        {
          "internalType": "address",
          "name": "",
          "type": "address"
        }
      ],
      "stateMutability": "view",
      "type": "function"
    },
    {
      "inputs": [],
      "name": "swapRouter",
      "outputs": [
        {
          "internalType": "contract ISwapRouter02",
          "name": "",
          "type": "address"
        }
      ],
      "stateMutability": "view",
      "type": "function"
    },
    {
      "inputs": [
        {
          "internalType": "uint256",
          "name": "amountIn",
          "type": "uint256"
        },
        {
          "internalType": "uint256",
          "name": "input",
          "type": "uint256"
        },
        {
          "internalType": "uint256",
          "name": "output",
          "type": "uint256"
        }
      ],
      "name": "swapTokenInputSingle",
      "outputs": [
        {
          "internalType": "uint256",
          "name": "amountOut",
          "type": "uint256"
        }
      ],
      "stateMutability": "nonpayable",
      "type": "function"
    },
    {
      "inputs": [
        {
          "internalType": "uint256",
          "name": "input",
          "type": "uint256"
        },
        {
          "internalType": "uint256",
          "name": "output",
          "type": "uint256"
        },
        {
          "internalType": "uint256",
          "name": "amountOut",
          "type": "uint256"
        },
        {
          "internalType": "uint256",
          "name": "amountInMaximum",
          "type": "uint256"
        }
      ],
      "name": "swapTokenOutputSingle",
      "outputs": [
        {
          "internalType": "uint256",
          "name": "amountIn",
          "type": "uint256"
        }
      ],
      "stateMutability": "nonpayable",
      "type": "function"
    }
  ],
  "bytecode": "0x6080604052733bfa4769fb09eefc5a80d6e87c3b9c650f7ae48e6000806101000a81548173ffffffffffffffffffffffffffffffffffffffff021916908373ffffffffffffffffffffffffffffffffffffffff16021790555034801561006457600080fd5b50604051806040016040528073fff9976782d46cc05630d1f6ebab18b2324d6b1473ffffffffffffffffffffffffffffffffffffffff1673ffffffffffffffffffffffffffffffffffffffff168152602001731f9840a85d5af5bf1d1762f925bdaddc4201f98473ffffffffffffffffffffffffffffffffffffffff1673ffffffffffffffffffffffffffffffffffffffff16815250600190600261010a929190610110565b506101b7565b828054828255906000526020600020908101928215610189579160200282015b828111156101885782518260006101000a81548173ffffffffffffffffffffffffffffffffffffffff021916908373ffffffffffffffffffffffffffffffffffffffff16021790555091602001919060010190610130565b5b509050610196919061019a565b5090565b5b808211156101b357600081600090555060010161019b565b5090565b6113be806101c66000396000f3fe608060405234801561001057600080fd5b506004361061004c5760003560e01c80638ec0fb5814610051578063ae1d632a14610081578063c31c9c07146100b1578063cc5c83b1146100cf575b600080fd5b61006b60048036038101906100669190610c22565b6100ff565b6040516100789190610c90565b60405180910390f35b61009b60048036038101906100969190610cab565b61013e565b6040516100a89190610d0d565b60405180910390f35b6100b961041c565b6040516100c69190610d87565b60405180910390f35b6100e960048036038101906100e49190610da2565b610440565b6040516100f69190610d0d565b60405180910390f35b6001818154811061010f57600080fd5b906000526020600020016000915054906101000a900473ffffffffffffffffffffffffffffffffffffffff1681565b600080840361014c57600080fd5b81830361015857600080fd5b60018054905083108015610170575060018054905082105b6101af576040517f08c379a00000000000000000000000000000000000000000000000000000000081526004016101a690610e66565b60405180910390fd5b6101f9600184815481106101c6576101c5610e86565b5b9060005260206000200160009054906101000a900473ffffffffffffffffffffffffffffffffffffffff163330876107e5565b610262600184815481106102105761020f610e86565b5b9060005260206000200160009054906101000a900473ffffffffffffffffffffffffffffffffffffffff1660008054906101000a900473ffffffffffffffffffffffffffffffffffffffff168661093d565b60006040518060e001604052806001868154811061028357610282610e86565b5b9060005260206000200160009054906101000a900473ffffffffffffffffffffffffffffffffffffffff1673ffffffffffffffffffffffffffffffffffffffff168152602001600185815481106102dd576102dc610e86565b5b9060005260206000200160009054906101000a900473ffffffffffffffffffffffffffffffffffffffff1673ffffffffffffffffffffffffffffffffffffffff168152602001610bb862ffffff1681526020013373ffffffffffffffffffffffffffffffffffffffff16815260200186815260200160008152602001600073ffffffffffffffffffffffffffffffffffffffff16815250905060008054906101000a900473ffffffffffffffffffffffffffffffffffffffff1673ffffffffffffffffffffffffffffffffffffffff166304e45aaf826040518263ffffffff1660e01b81526004016103cf9190610f8e565b6020604051808303816000875af11580156103ee573d6000803e3d6000fd5b505050506040513d601f19601f820116820180604052508101906104129190610fbe565b9150509392505050565b60008054906101000a900473ffffffffffffffffffffffffffffffffffffffff1681565b600080820361044e57600080fd5b83850361045a57600080fd5b60018054905085108015610472575060018054905084105b6104b1576040517f08c379a00000000000000000000000000000000000000000000000000000000081526004016104a890610e66565b60405180910390fd5b6104fb600186815481106104c8576104c7610e86565b5b9060005260206000200160009054906101000a900473ffffffffffffffffffffffffffffffffffffffff163330856107e5565b6105646001868154811061051257610511610e86565b5b9060005260206000200160009054906101000a900473ffffffffffffffffffffffffffffffffffffffff1660008054906101000a900473ffffffffffffffffffffffffffffffffffffffff168461093d565b60006040518060e001604052806001888154811061058557610584610e86565b5b9060005260206000200160009054906101000a900473ffffffffffffffffffffffffffffffffffffffff1673ffffffffffffffffffffffffffffffffffffffff168152602001600187815481106105df576105de610e86565b5b9060005260206000200160009054906101000a900473ffffffffffffffffffffffffffffffffffffffff1673ffffffffffffffffffffffffffffffffffffffff168152602001610bb862ffffff1681526020013373ffffffffffffffffffffffffffffffffffffffff168152602001858152602001848152602001600073ffffffffffffffffffffffffffffffffffffffff16815250905060008054906101000a900473ffffffffffffffffffffffffffffffffffffffff1673ffffffffffffffffffffffffffffffffffffffff16635023b4df826040518263ffffffff1660e01b81526004016106d09190611079565b6020604051808303816000875af11580156106ef573d6000803e3d6000fd5b505050506040513d601f19601f820116820180604052508101906107139190610fbe565b9150828210156107dc576107876001878154811061073457610733610e86565b5b9060005260206000200160009054906101000a900473ffffffffffffffffffffffffffffffffffffffff1660008054906101000a900473ffffffffffffffffffffffffffffffffffffffff16600061093d565b6107db6001878154811061079e5761079d610e86565b5b9060005260206000200160009054906101000a900473ffffffffffffffffffffffffffffffffffffffff163384866107d691906110c3565b610a92565b5b50949350505050565b6000808573ffffffffffffffffffffffffffffffffffffffff166323b872dd60e01b86868660405160240161081c939291906110f7565b604051602081830303815290604052907bffffffffffffffffffffffffffffffffffffffffffffffffffffffff19166020820180517bffffffffffffffffffffffffffffffffffffffffffffffffffffffff8381831617835250505050604051610886919061119f565b6000604051808303816000865af19150503d80600081146108c3576040519150601f19603f3d011682016040523d82523d6000602084013e6108c8565b606091505b50915091508180156108f657506000815114806108f55750808060200190518101906108f491906111ee565b5b5b610935576040517f08c379a000000000000000000000000000000000000000000000000000000000815260040161092c90611267565b60405180910390fd5b505050505050565b6000808473ffffffffffffffffffffffffffffffffffffffff1663095ea7b360e01b8585604051602401610972929190611287565b604051602081830303815290604052907bffffffffffffffffffffffffffffffffffffffffffffffffffffffff19166020820180517bffffffffffffffffffffffffffffffffffffffffffffffffffffffff83818316178352505050506040516109dc919061119f565b6000604051808303816000865af19150503d8060008114610a19576040519150601f19603f3d011682016040523d82523d6000602084013e610a1e565b606091505b5091509150818015610a4c5750600081511480610a4b575080806020019051810190610a4a91906111ee565b5b5b610a8b576040517f08c379a0000000000000000000000000000000000000000000000000000000008152600401610a82906112fc565b60405180910390fd5b5050505050565b6000808473ffffffffffffffffffffffffffffffffffffffff1663a9059cbb60e01b8585604051602401610ac7929190611287565b604051602081830303815290604052907bffffffffffffffffffffffffffffffffffffffffffffffffffffffff19166020820180517bffffffffffffffffffffffffffffffffffffffffffffffffffffffff8381831617835250505050604051610b31919061119f565b6000604051808303816000865af19150503d8060008114610b6e576040519150601f19603f3d011682016040523d82523d6000602084013e610b73565b606091505b5091509150818015610ba15750600081511480610ba0575080806020019051810190610b9f91906111ee565b5b5b610be0576040517f08c379a0000000000000000000000000000000000000000000000000000000008152600401610bd790611368565b60405180910390fd5b5050505050565b600080fd5b6000819050919050565b610bff81610bec565b8114610c0a57600080fd5b50565b600081359050610c1c81610bf6565b92915050565b600060208284031215610c3857610c37610be7565b5b6000610c4684828501610c0d565b91505092915050565b600073ffffffffffffffffffffffffffffffffffffffff82169050919050565b6000610c7a82610c4f565b9050919050565b610c8a81610c6f565b82525050565b6000602082019050610ca56000830184610c81565b92915050565b600080600060608486031215610cc457610cc3610be7565b5b6000610cd286828701610c0d565b9350506020610ce386828701610c0d565b9250506040610cf486828701610c0d565b9150509250925092565b610d0781610bec565b82525050565b6000602082019050610d226000830184610cfe565b92915050565b6000819050919050565b6000610d4d610d48610d4384610c4f565b610d28565b610c4f565b9050919050565b6000610d5f82610d32565b9050919050565b6000610d7182610d54565b9050919050565b610d8181610d66565b82525050565b6000602082019050610d9c6000830184610d78565b92915050565b60008060008060808587031215610dbc57610dbb610be7565b5b6000610dca87828801610c0d565b9450506020610ddb87828801610c0d565b9350506040610dec87828801610c0d565b9250506060610dfd87828801610c0d565b91505092959194509250565b600082825260208201905092915050565b7f4f7574206f6620426f756e647300000000000000000000000000000000000000600082015250565b6000610e50600d83610e09565b9150610e5b82610e1a565b602082019050919050565b60006020820190508181036000830152610e7f81610e43565b9050919050565b7f4e487b7100000000000000000000000000000000000000000000000000000000600052603260045260246000fd5b610ebe81610c6f565b82525050565b600062ffffff82169050919050565b610edc81610ec4565b82525050565b610eeb81610bec565b82525050565b610efa81610c4f565b82525050565b60e082016000820151610f166000850182610eb5565b506020820151610f296020850182610eb5565b506040820151610f3c6040850182610ed3565b506060820151610f4f6060850182610eb5565b506080820151610f626080850182610ee2565b5060a0820151610f7560a0850182610ee2565b5060c0820151610f8860c0850182610ef1565b50505050565b600060e082019050610fa36000830184610f00565b92915050565b600081519050610fb881610bf6565b92915050565b600060208284031215610fd457610fd3610be7565b5b6000610fe284828501610fa9565b91505092915050565b60e0820160008201516110016000850182610eb5565b5060208201516110146020850182610eb5565b5060408201516110276040850182610ed3565b50606082015161103a6060850182610eb5565b50608082015161104d6080850182610ee2565b5060a082015161106060a0850182610ee2565b5060c082015161107360c0850182610ef1565b50505050565b600060e08201905061108e6000830184610feb565b92915050565b7f4e487b7100000000000000000000000000000000000000000000000000000000600052601160045260246000fd5b60006110ce82610bec565b91506110d983610bec565b92508282039050818111156110f1576110f0611094565b5b92915050565b600060608201905061110c6000830186610c81565b6111196020830185610c81565b6111266040830184610cfe565b949350505050565b600081519050919050565b600081905092915050565b60005b83811015611162578082015181840152602081019050611147565b60008484015250505050565b60006111798261112e565b6111838185611139565b9350611193818560208601611144565b80840191505092915050565b60006111ab828461116e565b915081905092915050565b60008115159050919050565b6111cb816111b6565b81146111d657600080fd5b50565b6000815190506111e8816111c2565b92915050565b60006020828403121561120457611203610be7565b5b6000611212848285016111d9565b91505092915050565b7f5354460000000000000000000000000000000000000000000000000000000000600082015250565b6000611251600383610e09565b915061125c8261121b565b602082019050919050565b6000602082019050818103600083015261128081611244565b9050919050565b600060408201905061129c6000830185610c81565b6112a96020830184610cfe565b9392505050565b7f5341000000000000000000000000000000000000000000000000000000000000600082015250565b60006112e6600283610e09565b91506112f1826112b0565b602082019050919050565b60006020820190508181036000830152611315816112d9565b9050919050565b7f5354000000000000000000000000000000000000000000000000000000000000600082015250565b6000611352600283610e09565b915061135d8261131c565b602082019050919050565b6000602082019050818103600083015261138181611345565b905091905056fea2646970667358221220900845a6b32acef6984505d87f51b3cf8036694d7fd6b0bb48849b02b4c31dd964736f6c63430008140033",
  "linkReferences": {},
  "deployedLinkReferences": {}
}